{
  "contractName": "ICO",
  "abi": [
    {
      "anonymous": false,
      "inputs": [
        {
          "indexed": false,
          "internalType": "uint256",
          "name": "amount",
          "type": "uint256"
        }
      ],
      "name": "Bought",
      "type": "event"
    },
    {
      "inputs": [],
      "name": "token",
      "outputs": [
        {
          "internalType": "contract TDToken",
          "name": "",
          "type": "address"
        }
      ],
      "stateMutability": "view",
      "type": "function"
    },
    {
      "inputs": [],
      "name": "getToken",
      "outputs": [],
      "stateMutability": "payable",
      "type": "function"
    }
  ],
  "bytecode": "0x608060405234801561001057600080fd5b506103d7806100206000396000f3fe6080604052600436106100295760003560e01c806321df0da71461002e578063fc0c546a14610038575b600080fd5b61003661008f565b005b34801561004457600080fd5b5061004d61037c565b604051808273ffffffffffffffffffffffffffffffffffffffff1673ffffffffffffffffffffffffffffffffffffffff16815260200191505060405180910390f35b600034905060008060009054906101000a900473ffffffffffffffffffffffffffffffffffffffff1673ffffffffffffffffffffffffffffffffffffffff166370a08231306040518263ffffffff1660e01b8152600401808273ffffffffffffffffffffffffffffffffffffffff1673ffffffffffffffffffffffffffffffffffffffff16815260200191505060206040518083038186803b15801561013457600080fd5b505afa158015610148573d6000803e3d6000fd5b505050506040513d602081101561015e57600080fd5b81019080805190602001909291905050509050600082116101e7576040517f08c379a000000000000000000000000000000000000000000000000000000000815260040180806020018281038252601b8152602001807f596f75206e65656420746f2073656e6420736f6d65206574686572000000000081525060200191505060405180910390fd5b8082111561025d576040517f08c379a00000000000000000000000000000000000000000000000000000000081526004018080602001828103825260208152602001807f4e6f7420656e6f75676820746f6b656e7320696e20746865207265736572766581525060200191505060405180910390fd5b6000809054906101000a900473ffffffffffffffffffffffffffffffffffffffff1673ffffffffffffffffffffffffffffffffffffffff1663a9059cbb33846040518363ffffffff1660e01b8152600401808373ffffffffffffffffffffffffffffffffffffffff1673ffffffffffffffffffffffffffffffffffffffff16815260200182815260200192505050602060405180830381600087803b15801561030557600080fd5b505af1158015610319573d6000803e3d6000fd5b505050506040513d602081101561032f57600080fd5b8101908080519060200190929190505050507f4e08ba899977cf7d4c2964bce71c6b9a7ef76ee5166a4c1249a1e08016e33ef1826040518082815260200191505060405180910390a15050565b6000809054906101000a900473ffffffffffffffffffffffffffffffffffffffff168156fea26469706673582212201acb9ccacfe7d16e3caa7012e39b91d4cd37ec138b6323b092946411620d2cd164736f6c63430006000033",
  "source": "pragma solidity ^0.6.0;\r\n\r\nimport \"@openzeppelin/contracts/token/ERC20/ERC20.sol\";\r\nimport \"./CreateToken.sol\";\r\n/*\r\ncontract Crowsale {\r\n    using SafeMath for uint256;\r\n    TDToken public token;\r\n\r\n    uint256 public startTime;\r\n    uint256 public endTime;\r\n    address public wallet;\r\n    uint256 public rate; // token/wei\r\n    event TokenPurchase(address indexed purchaser, address indexed beneficiary, uint256 value, uint256 amount);\r\n    function Crowdsale(uint256 _startTime, uint256 _endTime, uint256 _rate, address _wallet, TDToken _token) public {\r\n        require(_startTime >= now);\r\n        require(_endTime >= _startTime);\r\n        require(_rate > 0);\r\n        require(_wallet != address(0));\r\n        require(_token != address(0));\r\n\r\n        startTime = _startTime;\r\n        endTime = _endTime;\r\n        rate = _rate;\r\n        wallet = _wallet;\r\n        token = _token;\r\n    }\r\n\r\n    // fallback function can be used to buy tokens\r\n    function() external payable {\r\n        buyTokens(msg.sender);\r\n    }\r\n\r\n    // low level token purchase function\r\n    function buyTokens(address beneficiary) public payable {\r\n        require(beneficiary != address(0));\r\n        require(validPurchase());\r\n\r\n        uint256 weiAmount = msg.value;\r\n\r\n        // calculate token amount to be created\r\n        uint256 tokens = weiAmount.mul(getRate());\r\n\r\n        // update state\r\n        weiRaised = weiRaised.add(weiAmount);\r\n\r\n        token.issue(beneficiary, tokens);\r\n        TokenPurchase(msg.sender, beneficiary, weiAmount, tokens);\r\n\r\n        forwardFunds();\r\n    }\r\n\r\n    // send ether to the fund collection wallet\r\n    // override to create custom fund forwarding mechanisms\r\n    function forwardFunds() internal {\r\n        wallet.transfer(msg.value);\r\n    }\r\n\r\n    // @return true if the transaction can buy tokens\r\n    function validPurchase() internal view returns (bool) {\r\n        bool withinPeriod = now >= startTime && now <= endTime;\r\n        bool nonZeroPurchase = msg.value != 0;\r\n        return withinPeriod && nonZeroPurchase;\r\n    }\r\n\r\n    // @return true if crowdsale event has ended\r\n    function hasEnded() public view returns (bool) {\r\n        return now > endTime;\r\n    }\r\n\r\n    // @return the crowdsale rate\r\n    function getRate() public view returns (uint256) {\r\n        return rate;\r\n    }\r\n}\r\n*/\r\n\r\ncontract ICO {\r\n    TDToken public token;\r\n    event Bought(uint256 amount);\r\n\r\n\r\n    function getToken() payable public {\r\n        uint256 amountTobuy = msg.value;\r\n        uint256 dexBalance = token.balanceOf(address(this));\r\n        require(amountTobuy > 0, \"You need to send some ether\");\r\n        require(amountTobuy <= dexBalance, \"Not enough tokens in the reserve\");\r\n        token.transfer(msg.sender, amountTobuy);\r\n        emit Bought(amountTobuy);\r\n    }\r\n}",
  "sourcePath": "C:/Users/antoi/OneDrive/Documents/S8 A4 FI/Programmation blockchain/Nouveau dossier/contracts/getToken.sol",
  "compiler": {
    "name": "solc",
    "version": "0.6.0+commit.26b70077.Emscripten.clang"
  },
  "schemaVersion": "3.3.4",
  "updatedAt": "2021-03-13T13:46:30.401Z",
  "devdoc": {
    "methods": {}
  },
  "userdoc": {
    "methods": {}
  }
}